{
  "_format": "hh-sol-artifact-1",
  "contractName": "Discussions",
  "sourceName": "contracts/Discussions.sol",
  "abi": [
    {
      "inputs": [
        {
          "internalType": "address",
          "name": "_trustedForwarder",
          "type": "address"
        }
      ],
      "stateMutability": "nonpayable",
      "type": "constructor"
    },
    {
      "anonymous": false,
      "inputs": [
        {
          "indexed": false,
          "internalType": "uint256",
          "name": "id",
          "type": "uint256"
        },
        {
          "indexed": true,
          "internalType": "address",
          "name": "author",
          "type": "address"
        },
        {
          "indexed": false,
          "internalType": "string",
          "name": "text",
          "type": "string"
        },
        {
          "indexed": false,
          "internalType": "uint256",
          "name": "createdAt",
          "type": "uint256"
        }
      ],
      "name": "DiscussionAdded",
      "type": "event"
    },
    {
      "inputs": [
        {
          "internalType": "address",
          "name": "_contractAddress",
          "type": "address"
        }
      ],
      "name": "getSongDiscussions",
      "outputs": [
        {
          "components": [
            {
              "internalType": "uint256",
              "name": "id",
              "type": "uint256"
            },
            {
              "internalType": "address payable",
              "name": "author",
              "type": "address"
            },
            {
              "internalType": "string",
              "name": "text",
              "type": "string"
            },
            {
              "internalType": "uint256",
              "name": "likes",
              "type": "uint256"
            },
            {
              "internalType": "uint256",
              "name": "createdAt",
              "type": "uint256"
            }
          ],
          "internalType": "struct Discussions.Discussion[]",
          "name": "",
          "type": "tuple[]"
        }
      ],
      "stateMutability": "view",
      "type": "function"
    },
    {
      "inputs": [],
      "name": "getTrustedForwarder",
      "outputs": [
        {
          "internalType": "address",
          "name": "forwarder",
          "type": "address"
        }
      ],
      "stateMutability": "view",
      "type": "function"
    },
    {
      "inputs": [
        {
          "internalType": "address",
          "name": "forwarder",
          "type": "address"
        }
      ],
      "name": "isTrustedForwarder",
      "outputs": [
        {
          "internalType": "bool",
          "name": "",
          "type": "bool"
        }
      ],
      "stateMutability": "view",
      "type": "function"
    },
    {
      "inputs": [
        {
          "internalType": "uint256",
          "name": "_discussionId",
          "type": "uint256"
        }
      ],
      "name": "likeDiscussion",
      "outputs": [],
      "stateMutability": "nonpayable",
      "type": "function"
    },
    {
      "inputs": [],
      "name": "owner",
      "outputs": [
        {
          "internalType": "address payable",
          "name": "",
          "type": "address"
        }
      ],
      "stateMutability": "view",
      "type": "function"
    },
    {
      "inputs": [
        {
          "internalType": "address",
          "name": "_contractAddress",
          "type": "address"
        },
        {
          "internalType": "string",
          "name": "_text",
          "type": "string"
        }
      ],
      "name": "postDiscussion",
      "outputs": [],
      "stateMutability": "nonpayable",
      "type": "function"
    },
    {
      "inputs": [
        {
          "internalType": "address",
          "name": "_trustedForwarder",
          "type": "address"
        }
      ],
      "name": "setTrustedForwarder",
      "outputs": [],
      "stateMutability": "nonpayable",
      "type": "function"
    },
    {
      "inputs": [],
      "name": "versionRecipient",
      "outputs": [
        {
          "internalType": "string",
          "name": "",
          "type": "string"
        }
      ],
      "stateMutability": "pure",
      "type": "function"
    }
  ],
  "bytecode": "0x608060405260016003553480156200001657600080fd5b506040516200145f3803806200145f83398181016040528101906200003c9190620001d9565b80600160006101000a81548173ffffffffffffffffffffffffffffffffffffffff021916908373ffffffffffffffffffffffffffffffffffffffff1602179055506200008d620000d460201b60201c565b600260006101000a81548173ffffffffffffffffffffffffffffffffffffffff021916908373ffffffffffffffffffffffffffffffffffffffff160217905550506200020b565b60006014600036905010158015620000f95750620000f8336200011660201b60201c565b5b156200010f57601436033560601c905062000113565b3390505b90565b60008060009054906101000a900473ffffffffffffffffffffffffffffffffffffffff1673ffffffffffffffffffffffffffffffffffffffff168273ffffffffffffffffffffffffffffffffffffffff16149050919050565b600080fd5b600073ffffffffffffffffffffffffffffffffffffffff82169050919050565b6000620001a18262000174565b9050919050565b620001b38162000194565b8114620001bf57600080fd5b50565b600081519050620001d381620001a8565b92915050565b600060208284031215620001f257620001f16200016f565b5b60006200020284828501620001c2565b91505092915050565b611244806200021b6000396000f3fe608060405234801561001057600080fd5b50600436106100885760003560e01c80639becca961161005b5780639becca9614610115578063ce1b815f14610131578063d23288161461014f578063da7422281461017f57610088565b8063486ff0cd1461008d578063572b6c05146100ab578063705927da146100db5780638da5cb5b146100f7575b600080fd5b61009561019b565b6040516100a29190610901565b60405180910390f35b6100c560048036038101906100c0919061098b565b6101d8565b6040516100d291906109d3565b60405180910390f35b6100f560048036038101906100f09190610a24565b610231565b005b6100ff610266565b60405161010c9190610a72565b60405180910390f35b61012f600480360381019061012a9190610af2565b61028c565b005b61013961048c565b6040516101469190610b61565b60405180910390f35b6101696004803603810190610164919061098b565b6104b5565b6040516101769190610d1c565b60405180910390f35b6101996004803603810190610194919061098b565b61071a565b005b60606040518060400160405280600181526020017f3100000000000000000000000000000000000000000000000000000000000000815250905090565b60008060009054906101000a900473ffffffffffffffffffffffffffffffffffffffff1673ffffffffffffffffffffffffffffffffffffffff168273ffffffffffffffffffffffffffffffffffffffff16149050919050565b600060056000838152602001908152602001600020905080600301600081548092919061025d90610d6d565b91905055505050565b600260009054906101000a900473ffffffffffffffffffffffffffffffffffffffff1681565b6040518060a0016040528060035481526020016102a76107f5565b73ffffffffffffffffffffffffffffffffffffffff16815260200183838080601f016020809104026020016040519081016040528093929190818152602001838380828437600081840152601f19601f82011690508083019250505050505050815260200160008152602001428152506005600060035481526020019081526020016000206000820151816000015560208201518160010160006101000a81548173ffffffffffffffffffffffffffffffffffffffff021916908373ffffffffffffffffffffffffffffffffffffffff16021790555060408201518160020190816103929190610ff0565b506060820151816003015560808201518160040155905050600460008473ffffffffffffffffffffffffffffffffffffffff1673ffffffffffffffffffffffffffffffffffffffff168152602001908152602001600020600354908060018154018082558091505060019003906000526020600020016000909190919091505561041a6107f5565b73ffffffffffffffffffffffffffffffffffffffff167f67d5112a9aaf3d37745c0b54c8b51bfccb1ac0fe0ba25071fab06c66122aa796600354848442604051610467949392919061110d565b60405180910390a26003600081548092919061048290610d6d565b9190505550505050565b60008060009054906101000a900473ffffffffffffffffffffffffffffffffffffffff16905090565b60606000600460008473ffffffffffffffffffffffffffffffffffffffff1673ffffffffffffffffffffffffffffffffffffffff16815260200190815260200160002080548060200260200160405190810160405280929190818152602001828054801561054257602002820191906000526020600020905b81548152602001906001019080831161052e575b5050505050905060008151905060008167ffffffffffffffff81111561056b5761056a610db5565b5b6040519080825280602002602001820160405280156105a457816020015b61059161082c565b8152602001906001900390816105895790505b50905060005b8281101561070e576000600560008684815181106105cb576105ca61114d565b5b6020026020010151815260200190815260200160002090506040518060a00160405280826000015481526020018260010160009054906101000a900473ffffffffffffffffffffffffffffffffffffffff1673ffffffffffffffffffffffffffffffffffffffff16815260200182600201805461064790610e13565b80601f016020809104026020016040519081016040528092919081815260200182805461067390610e13565b80156106c05780601f10610695576101008083540402835291602001916106c0565b820191906000526020600020905b8154815290600101906020018083116106a357829003601f168201915b505050505081526020018260030154815260200182600401548152508383815181106106ef576106ee61114d565b5b602002602001018190525050808061070690610d6d565b9150506105aa565b50809350505050919050565b600260009054906101000a900473ffffffffffffffffffffffffffffffffffffffff1673ffffffffffffffffffffffffffffffffffffffff1661075b6107f5565b73ffffffffffffffffffffffffffffffffffffffff16146107b1576040517f08c379a00000000000000000000000000000000000000000000000000000000081526004016107a8906111ee565b60405180910390fd5b80600160006101000a81548173ffffffffffffffffffffffffffffffffffffffff021916908373ffffffffffffffffffffffffffffffffffffffff16021790555050565b600060146000369050101580156108115750610810336101d8565b5b1561082557601436033560601c9050610829565b3390505b90565b6040518060a0016040528060008152602001600073ffffffffffffffffffffffffffffffffffffffff1681526020016060815260200160008152602001600081525090565b600081519050919050565b600082825260208201905092915050565b60005b838110156108ab578082015181840152602081019050610890565b60008484015250505050565b6000601f19601f8301169050919050565b60006108d382610871565b6108dd818561087c565b93506108ed81856020860161088d565b6108f6816108b7565b840191505092915050565b6000602082019050818103600083015261091b81846108c8565b905092915050565b600080fd5b600080fd5b600073ffffffffffffffffffffffffffffffffffffffff82169050919050565b60006109588261092d565b9050919050565b6109688161094d565b811461097357600080fd5b50565b6000813590506109858161095f565b92915050565b6000602082840312156109a1576109a0610923565b5b60006109af84828501610976565b91505092915050565b60008115159050919050565b6109cd816109b8565b82525050565b60006020820190506109e860008301846109c4565b92915050565b6000819050919050565b610a01816109ee565b8114610a0c57600080fd5b50565b600081359050610a1e816109f8565b92915050565b600060208284031215610a3a57610a39610923565b5b6000610a4884828501610a0f565b91505092915050565b6000610a5c8261092d565b9050919050565b610a6c81610a51565b82525050565b6000602082019050610a876000830184610a63565b92915050565b600080fd5b600080fd5b600080fd5b60008083601f840112610ab257610ab1610a8d565b5b8235905067ffffffffffffffff811115610acf57610ace610a92565b5b602083019150836001820283011115610aeb57610aea610a97565b5b9250929050565b600080600060408486031215610b0b57610b0a610923565b5b6000610b1986828701610976565b935050602084013567ffffffffffffffff811115610b3a57610b39610928565b5b610b4686828701610a9c565b92509250509250925092565b610b5b8161094d565b82525050565b6000602082019050610b766000830184610b52565b92915050565b600081519050919050565b600082825260208201905092915050565b6000819050602082019050919050565b610bb1816109ee565b82525050565b610bc081610a51565b82525050565b600082825260208201905092915050565b6000610be282610871565b610bec8185610bc6565b9350610bfc81856020860161088d565b610c05816108b7565b840191505092915050565b600060a083016000830151610c286000860182610ba8565b506020830151610c3b6020860182610bb7565b5060408301518482036040860152610c538282610bd7565b9150506060830151610c686060860182610ba8565b506080830151610c7b6080860182610ba8565b508091505092915050565b6000610c928383610c10565b905092915050565b6000602082019050919050565b6000610cb282610b7c565b610cbc8185610b87565b935083602082028501610cce85610b98565b8060005b85811015610d0a5784840389528151610ceb8582610c86565b9450610cf683610c9a565b925060208a01995050600181019050610cd2565b50829750879550505050505092915050565b60006020820190508181036000830152610d368184610ca7565b905092915050565b7f4e487b7100000000000000000000000000000000000000000000000000000000600052601160045260246000fd5b6000610d78826109ee565b91507fffffffffffffffffffffffffffffffffffffffffffffffffffffffffffffffff8203610daa57610da9610d3e565b5b600182019050919050565b7f4e487b7100000000000000000000000000000000000000000000000000000000600052604160045260246000fd5b7f4e487b7100000000000000000000000000000000000000000000000000000000600052602260045260246000fd5b60006002820490506001821680610e2b57607f821691505b602082108103610e3e57610e3d610de4565b5b50919050565b60008190508160005260206000209050919050565b60006020601f8301049050919050565b600082821b905092915050565b600060088302610ea67fffffffffffffffffffffffffffffffffffffffffffffffffffffffffffffffff82610e69565b610eb08683610e69565b95508019841693508086168417925050509392505050565b6000819050919050565b6000610eed610ee8610ee3846109ee565b610ec8565b6109ee565b9050919050565b6000819050919050565b610f0783610ed2565b610f1b610f1382610ef4565b848454610e76565b825550505050565b600090565b610f30610f23565b610f3b818484610efe565b505050565b5b81811015610f5f57610f54600082610f28565b600181019050610f41565b5050565b601f821115610fa457610f7581610e44565b610f7e84610e59565b81016020851015610f8d578190505b610fa1610f9985610e59565b830182610f40565b50505b505050565b600082821c905092915050565b6000610fc760001984600802610fa9565b1980831691505092915050565b6000610fe08383610fb6565b9150826002028217905092915050565b610ff982610871565b67ffffffffffffffff81111561101257611011610db5565b5b61101c8254610e13565b611027828285610f63565b600060209050601f83116001811461105a5760008415611048578287015190505b6110528582610fd4565b8655506110ba565b601f19841661106886610e44565b60005b828110156110905784890151825560018201915060208501945060208101905061106b565b868310156110ad57848901516110a9601f891682610fb6565b8355505b6001600288020188555050505b505050505050565b6110cb816109ee565b82525050565b82818337600083830152505050565b60006110ec838561087c565b93506110f98385846110d1565b611102836108b7565b840190509392505050565b600060608201905061112260008301876110c2565b81810360208301526111358185876110e0565b905061114460408301846110c2565b95945050505050565b7f4e487b7100000000000000000000000000000000000000000000000000000000600052603260045260246000fd5b7f4f6e6c79206f776e65722063616e2063616c6c20746869732066756e6374696f60008201527f6e00000000000000000000000000000000000000000000000000000000000000602082015250565b60006111d860218361087c565b91506111e38261117c565b604082019050919050565b60006020820190508181036000830152611207816111cb565b905091905056fea26469706673582212201f9304db9ea13e74174b68c09e20986e78e447ea4e67083a6630ba4c4f0debf264736f6c63430008110033",
  "linkReferences": {},
  "deployedLinkReferences": {}
}