{
  "_format": "hh-sol-artifact-1",
  "contractName": "DrakeInMyFeelings",
  "sourceName": "contracts/DrakeInMyFeelings.sol",
  "abi": [
    {
      "inputs": [],
      "stateMutability": "nonpayable",
      "type": "constructor"
    },
    {
      "anonymous": false,
      "inputs": [
        {
          "indexed": true,
          "internalType": "address",
          "name": "owner",
          "type": "address"
        },
        {
          "indexed": true,
          "internalType": "address",
          "name": "spender",
          "type": "address"
        },
        {
          "indexed": false,
          "internalType": "uint256",
          "name": "value",
          "type": "uint256"
        }
      ],
      "name": "Approval",
      "type": "event"
    },
    {
      "anonymous": false,
      "inputs": [
        {
          "indexed": true,
          "internalType": "address",
          "name": "from",
          "type": "address"
        },
        {
          "indexed": true,
          "internalType": "address",
          "name": "to",
          "type": "address"
        },
        {
          "indexed": false,
          "internalType": "uint256",
          "name": "value",
          "type": "uint256"
        }
      ],
      "name": "Transfer",
      "type": "event"
    },
    {
      "inputs": [
        {
          "internalType": "address",
          "name": "owner",
          "type": "address"
        },
        {
          "internalType": "address",
          "name": "spender",
          "type": "address"
        }
      ],
      "name": "allowance",
      "outputs": [
        {
          "internalType": "uint256",
          "name": "",
          "type": "uint256"
        }
      ],
      "stateMutability": "view",
      "type": "function"
    },
    {
      "inputs": [
        {
          "internalType": "address",
          "name": "spender",
          "type": "address"
        },
        {
          "internalType": "uint256",
          "name": "amount",
          "type": "uint256"
        }
      ],
      "name": "approve",
      "outputs": [
        {
          "internalType": "bool",
          "name": "",
          "type": "bool"
        }
      ],
      "stateMutability": "nonpayable",
      "type": "function"
    },
    {
      "inputs": [],
      "name": "artistAddress",
      "outputs": [
        {
          "internalType": "address payable",
          "name": "",
          "type": "address"
        }
      ],
      "stateMutability": "view",
      "type": "function"
    },
    {
      "inputs": [],
      "name": "artistName",
      "outputs": [
        {
          "internalType": "string",
          "name": "",
          "type": "string"
        }
      ],
      "stateMutability": "view",
      "type": "function"
    },
    {
      "inputs": [
        {
          "internalType": "address",
          "name": "account",
          "type": "address"
        }
      ],
      "name": "balanceOf",
      "outputs": [
        {
          "internalType": "uint256",
          "name": "",
          "type": "uint256"
        }
      ],
      "stateMutability": "view",
      "type": "function"
    },
    {
      "inputs": [],
      "name": "cap",
      "outputs": [
        {
          "internalType": "uint256",
          "name": "",
          "type": "uint256"
        }
      ],
      "stateMutability": "view",
      "type": "function"
    },
    {
      "inputs": [],
      "name": "decimals",
      "outputs": [
        {
          "internalType": "uint8",
          "name": "",
          "type": "uint8"
        }
      ],
      "stateMutability": "view",
      "type": "function"
    },
    {
      "inputs": [
        {
          "internalType": "address",
          "name": "spender",
          "type": "address"
        },
        {
          "internalType": "uint256",
          "name": "subtractedValue",
          "type": "uint256"
        }
      ],
      "name": "decreaseAllowance",
      "outputs": [
        {
          "internalType": "bool",
          "name": "",
          "type": "bool"
        }
      ],
      "stateMutability": "nonpayable",
      "type": "function"
    },
    {
      "inputs": [],
      "name": "destroy",
      "outputs": [],
      "stateMutability": "nonpayable",
      "type": "function"
    },
    {
      "inputs": [],
      "name": "geniusID",
      "outputs": [
        {
          "internalType": "string",
          "name": "",
          "type": "string"
        }
      ],
      "stateMutability": "view",
      "type": "function"
    },
    {
      "inputs": [
        {
          "internalType": "address",
          "name": "spender",
          "type": "address"
        },
        {
          "internalType": "uint256",
          "name": "addedValue",
          "type": "uint256"
        }
      ],
      "name": "increaseAllowance",
      "outputs": [
        {
          "internalType": "bool",
          "name": "",
          "type": "bool"
        }
      ],
      "stateMutability": "nonpayable",
      "type": "function"
    },
    {
      "inputs": [],
      "name": "isArtistVerified",
      "outputs": [
        {
          "internalType": "bool",
          "name": "",
          "type": "bool"
        }
      ],
      "stateMutability": "view",
      "type": "function"
    },
    {
      "inputs": [],
      "name": "name",
      "outputs": [
        {
          "internalType": "string",
          "name": "",
          "type": "string"
        }
      ],
      "stateMutability": "view",
      "type": "function"
    },
    {
      "inputs": [],
      "name": "owner",
      "outputs": [
        {
          "internalType": "address payable",
          "name": "",
          "type": "address"
        }
      ],
      "stateMutability": "view",
      "type": "function"
    },
    {
      "inputs": [],
      "name": "songName",
      "outputs": [
        {
          "internalType": "string",
          "name": "",
          "type": "string"
        }
      ],
      "stateMutability": "view",
      "type": "function"
    },
    {
      "inputs": [],
      "name": "spotifyURI",
      "outputs": [
        {
          "internalType": "string",
          "name": "",
          "type": "string"
        }
      ],
      "stateMutability": "view",
      "type": "function"
    },
    {
      "inputs": [],
      "name": "symbol",
      "outputs": [
        {
          "internalType": "string",
          "name": "",
          "type": "string"
        }
      ],
      "stateMutability": "view",
      "type": "function"
    },
    {
      "inputs": [],
      "name": "totalSupply",
      "outputs": [
        {
          "internalType": "uint256",
          "name": "",
          "type": "uint256"
        }
      ],
      "stateMutability": "view",
      "type": "function"
    },
    {
      "inputs": [
        {
          "internalType": "address",
          "name": "to",
          "type": "address"
        },
        {
          "internalType": "uint256",
          "name": "amount",
          "type": "uint256"
        }
      ],
      "name": "transfer",
      "outputs": [
        {
          "internalType": "bool",
          "name": "",
          "type": "bool"
        }
      ],
      "stateMutability": "nonpayable",
      "type": "function"
    },
    {
      "inputs": [
        {
          "internalType": "address",
          "name": "from",
          "type": "address"
        },
        {
          "internalType": "address",
          "name": "to",
          "type": "address"
        },
        {
          "internalType": "uint256",
          "name": "amount",
          "type": "uint256"
        }
      ],
      "name": "transferFrom",
      "outputs": [
        {
          "internalType": "bool",
          "name": "",
          "type": "bool"
        }
      ],
      "stateMutability": "nonpayable",
      "type": "function"
    },
    {
      "inputs": [
        {
          "internalType": "address",
          "name": "_artistAddress",
          "type": "address"
        }
      ],
      "name": "transferOwnershipToArtist",
      "outputs": [],
      "stateMutability": "nonpayable",
      "type": "function"
    },
    {
      "inputs": [],
      "name": "unreleasedSongURL",
      "outputs": [
        {
          "internalType": "string",
          "name": "",
          "type": "string"
        }
      ],
      "stateMutability": "view",
      "type": "function"
    },
    {
      "inputs": [
        {
          "internalType": "string",
          "name": "_unreleasedSongURL",
          "type": "string"
        }
      ],
      "name": "updateUnreleasedSongURL",
      "outputs": [],
      "stateMutability": "nonpayable",
      "type": "function"
    }
  ],
  "bytecode": "0x60a06040523480156200001157600080fd5b50620000226200033e60201b60201c565b600a6200003091906200078e565b60646200003e9190620007df565b6040518060400160405280601181526020017f4472616b65496e4d794665656c696e67730000000000000000000000000000008152506040518060400160405280600481526020017f44494d46000000000000000000000000000000000000000000000000000000008152508160039081620000bb919062000a9a565b508060049081620000cd919062000a9a565b5050506000811162000116576040517f08c379a00000000000000000000000000000000000000000000000000000000081526004016200010d9062000be2565b60405180910390fd5b80608081815250505033600560006101000a81548173ffffffffffffffffffffffffffffffffffffffff021916908373ffffffffffffffffffffffffffffffffffffffff1602179055506040518060400160405280600581526020017f4472616b6500000000000000000000000000000000000000000000000000000081525060069081620001a6919062000a9a565b506040518060400160405280600e81526020017f496e204d79204665656c696e677300000000000000000000000000000000000081525060079081620001ed919062000a9a565b506040518060400160405280600781526020017f33383037373539000000000000000000000000000000000000000000000000008152506008908162000234919062000a9a565b506040518060400160405280601681526020017f32473756377a7356447867317952737537457739524a00000000000000000000815250600990816200027b919062000a9a565b506000600a60006101000a81548173ffffffffffffffffffffffffffffffffffffffff021916908373ffffffffffffffffffffffffffffffffffffffff1602179055506000600c60006101000a81548160ff02191690831515021790555062000338600560009054906101000a900473ffffffffffffffffffffffffffffffffffffffff16620003106200033e60201b60201c565b600a6200031e91906200078e565b60646200032c9190620007df565b6200034760201b60201c565b62000d51565b60006012905090565b62000357620003d860201b60201c565b816200036d620003e260201b6200051f1760201c565b62000379919062000c04565b1115620003bd576040517f08c379a0000000000000000000000000000000000000000000000000000000008152600401620003b49062000c8f565b60405180910390fd5b620003d48282620003ec60201b62000d931760201c565b5050565b6000608051905090565b6000600254905090565b620003fc620003d860201b60201c565b8162000412620003e260201b6200051f1760201c565b6200041e919062000c04565b111562000462576040517f08c379a0000000000000000000000000000000000000000000000000000000008152600401620004599062000c8f565b60405180910390fd5b6200047982826200047d60201b62000dfd1760201c565b5050565b600073ffffffffffffffffffffffffffffffffffffffff168273ffffffffffffffffffffffffffffffffffffffff1603620004ef576040517f08c379a0000000000000000000000000000000000000000000000000000000008152600401620004e69062000d01565b60405180910390fd5b6200050360008383620005ea60201b60201c565b806002600082825462000517919062000c04565b92505081905550806000808473ffffffffffffffffffffffffffffffffffffffff1673ffffffffffffffffffffffffffffffffffffffff168152602001908152602001600020600082825401925050819055508173ffffffffffffffffffffffffffffffffffffffff16600073ffffffffffffffffffffffffffffffffffffffff167fddf252ad1be2c89b69c2b068fc378daa952ba7f163c4a11628f55a4df523b3ef83604051620005ca919062000d34565b60405180910390a3620005e660008383620005ef60201b60201c565b5050565b505050565b505050565b7f4e487b7100000000000000000000000000000000000000000000000000000000600052601160045260246000fd5b60008160011c9050919050565b6000808291508390505b600185111562000682578086048111156200065a5762000659620005f4565b5b60018516156200066a5780820291505b80810290506200067a8562000623565b94506200063a565b94509492505050565b6000826200069d576001905062000770565b81620006ad576000905062000770565b8160018114620006c65760028114620006d15762000707565b600191505062000770565b60ff841115620006e657620006e5620005f4565b5b8360020a9150848211156200070057620006ff620005f4565b5b5062000770565b5060208310610133831016604e8410600b8410161715620007415782820a9050838111156200073b576200073a620005f4565b5b62000770565b62000750848484600162000630565b925090508184048111156200076a5762000769620005f4565b5b81810290505b9392505050565b6000819050919050565b600060ff82169050919050565b60006200079b8262000777565b9150620007a88362000781565b9250620007d77fffffffffffffffffffffffffffffffffffffffffffffffffffffffffffffffff84846200068b565b905092915050565b6000620007ec8262000777565b9150620007f98362000777565b9250828202620008098162000777565b91508282048414831517620008235762000822620005f4565b5b5092915050565b600081519050919050565b7f4e487b7100000000000000000000000000000000000000000000000000000000600052604160045260246000fd5b7f4e487b7100000000000000000000000000000000000000000000000000000000600052602260045260246000fd5b60006002820490506001821680620008ac57607f821691505b602082108103620008c257620008c162000864565b5b50919050565b60008190508160005260206000209050919050565b60006020601f8301049050919050565b600082821b905092915050565b6000600883026200092c7fffffffffffffffffffffffffffffffffffffffffffffffffffffffffffffffff82620008ed565b620009388683620008ed565b95508019841693508086168417925050509392505050565b6000819050919050565b60006200097b620009756200096f8462000777565b62000950565b62000777565b9050919050565b6000819050919050565b62000997836200095a565b620009af620009a68262000982565b848454620008fa565b825550505050565b600090565b620009c6620009b7565b620009d38184846200098c565b505050565b5b81811015620009fb57620009ef600082620009bc565b600181019050620009d9565b5050565b601f82111562000a4a5762000a1481620008c8565b62000a1f84620008dd565b8101602085101562000a2f578190505b62000a4762000a3e85620008dd565b830182620009d8565b50505b505050565b600082821c905092915050565b600062000a6f6000198460080262000a4f565b1980831691505092915050565b600062000a8a838362000a5c565b9150826002028217905092915050565b62000aa5826200082a565b67ffffffffffffffff81111562000ac15762000ac062000835565b5b62000acd825462000893565b62000ada828285620009ff565b600060209050601f83116001811462000b12576000841562000afd578287015190505b62000b09858262000a7c565b86555062000b79565b601f19841662000b2286620008c8565b60005b8281101562000b4c5784890151825560018201915060208501945060208101905062000b25565b8683101562000b6c578489015162000b68601f89168262000a5c565b8355505b6001600288020188555050505b505050505050565b600082825260208201905092915050565b7f45524332304361707065643a2063617020697320300000000000000000000000600082015250565b600062000bca60158362000b81565b915062000bd78262000b92565b602082019050919050565b6000602082019050818103600083015262000bfd8162000bbb565b9050919050565b600062000c118262000777565b915062000c1e8362000777565b925082820190508082111562000c395762000c38620005f4565b5b92915050565b7f45524332304361707065643a2063617020657863656564656400000000000000600082015250565b600062000c7760198362000b81565b915062000c848262000c3f565b602082019050919050565b6000602082019050818103600083015262000caa8162000c68565b9050919050565b7f45524332303a206d696e7420746f20746865207a65726f206164647265737300600082015250565b600062000ce9601f8362000b81565b915062000cf68262000cb1565b602082019050919050565b6000602082019050818103600083015262000d1c8162000cda565b9050919050565b62000d2e8162000777565b82525050565b600060208201905062000d4b600083018462000d23565b92915050565b60805161229262000d6d600039600061056501526122926000f3fe608060405234801561001057600080fd5b506004361061014d5760003560e01c806383197ef0116100c3578063a457c2d71161007c578063a457c2d714610382578063a9059cbb146103b2578063c88e6984146103e2578063d7eb3f3a14610400578063da2b1b9d1461041e578063dd62ed3e1461043a5761014d565b806383197ef0146102e4578063839c8c64146102ee57806389de9fab1461030c5780638da5cb5b1461032857806395d89b411461034657806396cd06f8146103645761014d565b8063355274ea11610115578063355274ea1461020c578063395093511461022a5780635b2f515b1461025a5780635b59c30a1461027857806370a08231146102965780637d2efe8e146102c65761014d565b806306fdde0314610152578063095ea7b31461017057806318160ddd146101a057806323b872dd146101be578063313ce567146101ee575b600080fd5b61015a61046a565b60405161016791906114c0565b60405180910390f35b61018a6004803603810190610185919061158a565b6104fc565b60405161019791906115e5565b60405180910390f35b6101a861051f565b6040516101b5919061160f565b60405180910390f35b6101d860048036038101906101d3919061162a565b610529565b6040516101e591906115e5565b60405180910390f35b6101f6610558565b6040516102039190611699565b60405180910390f35b610214610561565b604051610221919061160f565b60405180910390f35b610244600480360381019061023f919061158a565b610589565b60405161025191906115e5565b60405180910390f35b6102626105c0565b60405161026f91906114c0565b60405180910390f35b61028061064e565b60405161028d91906114c0565b60405180910390f35b6102b060048036038101906102ab91906116b4565b6106dc565b6040516102bd919061160f565b60405180910390f35b6102ce610724565b6040516102db91906114c0565b60405180910390f35b6102ec6107b2565b005b6102f661087d565b60405161030391906114c0565b60405180910390f35b610326600480360381019061032191906116b4565b61090b565b005b6103306109fa565b60405161033d9190611702565b60405180910390f35b61034e610a20565b60405161035b91906114c0565b60405180910390f35b61036c610ab2565b60405161037991906114c0565b60405180910390f35b61039c6004803603810190610397919061158a565b610b40565b6040516103a991906115e5565b60405180910390f35b6103cc60048036038101906103c7919061158a565b610bb7565b6040516103d991906115e5565b60405180910390f35b6103ea610bda565b6040516103f791906115e5565b60405180910390f35b610408610bed565b6040516104159190611702565b60405180910390f35b61043860048036038101906104339190611852565b610c13565b005b610454600480360381019061044f919061189b565b610d0c565b604051610461919061160f565b60405180910390f35b6060600380546104799061190a565b80601f01602080910402602001604051908101604052809291908181526020018280546104a59061190a565b80156104f25780601f106104c7576101008083540402835291602001916104f2565b820191906000526020600020905b8154815290600101906020018083116104d557829003601f168201915b5050505050905090565b600080610507610f53565b9050610514818585610f5b565b600191505092915050565b6000600254905090565b600080610534610f53565b9050610541858285611124565b61054c8585856111b0565b60019150509392505050565b60006012905090565b60007f0000000000000000000000000000000000000000000000000000000000000000905090565b600080610594610f53565b90506105b58185856105a68589610d0c565b6105b0919061196a565b610f5b565b600191505092915050565b600680546105cd9061190a565b80601f01602080910402602001604051908101604052809291908181526020018280546105f99061190a565b80156106465780601f1061061b57610100808354040283529160200191610646565b820191906000526020600020905b81548152906001019060200180831161062957829003601f168201915b505050505081565b600b805461065b9061190a565b80601f01602080910402602001604051908101604052809291908181526020018280546106879061190a565b80156106d45780601f106106a9576101008083540402835291602001916106d4565b820191906000526020600020905b8154815290600101906020018083116106b757829003601f168201915b505050505081565b60008060008373ffffffffffffffffffffffffffffffffffffffff1673ffffffffffffffffffffffffffffffffffffffff168152602001908152602001600020549050919050565b600880546107319061190a565b80601f016020809104026020016040519081016040528092919081815260200182805461075d9061190a565b80156107aa5780601f1061077f576101008083540402835291602001916107aa565b820191906000526020600020905b81548152906001019060200180831161078d57829003601f168201915b505050505081565b600560009054906101000a900473ffffffffffffffffffffffffffffffffffffffff1673ffffffffffffffffffffffffffffffffffffffff163373ffffffffffffffffffffffffffffffffffffffff1614610842576040517f08c379a000000000000000000000000000000000000000000000000000000000815260040161083990611a10565b60405180910390fd5b600560009054906101000a900473ffffffffffffffffffffffffffffffffffffffff1673ffffffffffffffffffffffffffffffffffffffff16ff5b6009805461088a9061190a565b80601f01602080910402602001604051908101604052809291908181526020018280546108b69061190a565b80156109035780601f106108d857610100808354040283529160200191610903565b820191906000526020600020905b8154815290600101906020018083116108e657829003601f168201915b505050505081565b600560009054906101000a900473ffffffffffffffffffffffffffffffffffffffff1673ffffffffffffffffffffffffffffffffffffffff163373ffffffffffffffffffffffffffffffffffffffff161461099b576040517f08c379a000000000000000000000000000000000000000000000000000000000815260040161099290611a10565b60405180910390fd5b80600a60006101000a81548173ffffffffffffffffffffffffffffffffffffffff021916908373ffffffffffffffffffffffffffffffffffffffff1602179055506001600c60006101000a81548160ff02191690831515021790555050565b600560009054906101000a900473ffffffffffffffffffffffffffffffffffffffff1681565b606060048054610a2f9061190a565b80601f0160208091040260200160405190810160405280929190818152602001828054610a5b9061190a565b8015610aa85780601f10610a7d57610100808354040283529160200191610aa8565b820191906000526020600020905b815481529060010190602001808311610a8b57829003601f168201915b5050505050905090565b60078054610abf9061190a565b80601f0160208091040260200160405190810160405280929190818152602001828054610aeb9061190a565b8015610b385780601f10610b0d57610100808354040283529160200191610b38565b820191906000526020600020905b815481529060010190602001808311610b1b57829003601f168201915b505050505081565b600080610b4b610f53565b90506000610b598286610d0c565b905083811015610b9e576040517f08c379a0000000000000000000000000000000000000000000000000000000008152600401610b9590611aa2565b60405180910390fd5b610bab8286868403610f5b565b60019250505092915050565b600080610bc2610f53565b9050610bcf8185856111b0565b600191505092915050565b600c60009054906101000a900460ff1681565b600a60009054906101000a900473ffffffffffffffffffffffffffffffffffffffff1681565b60011515600c60009054906101000a900460ff16151514610c69576040517f08c379a0000000000000000000000000000000000000000000000000000000008152600401610c6090611b0e565b60405180910390fd5b600a60009054906101000a900473ffffffffffffffffffffffffffffffffffffffff1673ffffffffffffffffffffffffffffffffffffffff163373ffffffffffffffffffffffffffffffffffffffff1614610cf9576040517f08c379a0000000000000000000000000000000000000000000000000000000008152600401610cf090611ba0565b60405180910390fd5b80600b9081610d089190611d6c565b5050565b6000600160008473ffffffffffffffffffffffffffffffffffffffff1673ffffffffffffffffffffffffffffffffffffffff16815260200190815260200160002060008373ffffffffffffffffffffffffffffffffffffffff1673ffffffffffffffffffffffffffffffffffffffff16815260200190815260200160002054905092915050565b610d9b610561565b81610da461051f565b610dae919061196a565b1115610def576040517f08c379a0000000000000000000000000000000000000000000000000000000008152600401610de690611e8a565b60405180910390fd5b610df98282610dfd565b5050565b600073ffffffffffffffffffffffffffffffffffffffff168273ffffffffffffffffffffffffffffffffffffffff1603610e6c576040517f08c379a0000000000000000000000000000000000000000000000000000000008152600401610e6390611ef6565b60405180910390fd5b610e7860008383611426565b8060026000828254610e8a919061196a565b92505081905550806000808473ffffffffffffffffffffffffffffffffffffffff1673ffffffffffffffffffffffffffffffffffffffff168152602001908152602001600020600082825401925050819055508173ffffffffffffffffffffffffffffffffffffffff16600073ffffffffffffffffffffffffffffffffffffffff167fddf252ad1be2c89b69c2b068fc378daa952ba7f163c4a11628f55a4df523b3ef83604051610f3b919061160f565b60405180910390a3610f4f6000838361142b565b5050565b600033905090565b600073ffffffffffffffffffffffffffffffffffffffff168373ffffffffffffffffffffffffffffffffffffffff1603610fca576040517f08c379a0000000000000000000000000000000000000000000000000000000008152600401610fc190611f88565b60405180910390fd5b600073ffffffffffffffffffffffffffffffffffffffff168273ffffffffffffffffffffffffffffffffffffffff1603611039576040517f08c379a00000000000000000000000000000000000000000000000000000000081526004016110309061201a565b60405180910390fd5b80600160008573ffffffffffffffffffffffffffffffffffffffff1673ffffffffffffffffffffffffffffffffffffffff16815260200190815260200160002060008473ffffffffffffffffffffffffffffffffffffffff1673ffffffffffffffffffffffffffffffffffffffff168152602001908152602001600020819055508173ffffffffffffffffffffffffffffffffffffffff168373ffffffffffffffffffffffffffffffffffffffff167f8c5be1e5ebec7d5bd14f71427d1e84f3dd0314c0f7b2291e5b200ac8c7c3b92583604051611117919061160f565b60405180910390a3505050565b60006111308484610d0c565b90507fffffffffffffffffffffffffffffffffffffffffffffffffffffffffffffffff81146111aa578181101561119c576040517f08c379a000000000000000000000000000000000000000000000000000000000815260040161119390612086565b60405180910390fd5b6111a98484848403610f5b565b5b50505050565b600073ffffffffffffffffffffffffffffffffffffffff168373ffffffffffffffffffffffffffffffffffffffff160361121f576040517f08c379a000000000000000000000000000000000000000000000000000000000815260040161121690612118565b60405180910390fd5b600073ffffffffffffffffffffffffffffffffffffffff168273ffffffffffffffffffffffffffffffffffffffff160361128e576040517f08c379a0000000000000000000000000000000000000000000000000000000008152600401611285906121aa565b60405180910390fd5b611299838383611426565b60008060008573ffffffffffffffffffffffffffffffffffffffff1673ffffffffffffffffffffffffffffffffffffffff1681526020019081526020016000205490508181101561131f576040517f08c379a00000000000000000000000000000000000000000000000000000000081526004016113169061223c565b60405180910390fd5b8181036000808673ffffffffffffffffffffffffffffffffffffffff1673ffffffffffffffffffffffffffffffffffffffff16815260200190815260200160002081905550816000808573ffffffffffffffffffffffffffffffffffffffff1673ffffffffffffffffffffffffffffffffffffffff168152602001908152602001600020600082825401925050819055508273ffffffffffffffffffffffffffffffffffffffff168473ffffffffffffffffffffffffffffffffffffffff167fddf252ad1be2c89b69c2b068fc378daa952ba7f163c4a11628f55a4df523b3ef8460405161140d919061160f565b60405180910390a361142084848461142b565b50505050565b505050565b505050565b600081519050919050565b600082825260208201905092915050565b60005b8381101561146a57808201518184015260208101905061144f565b60008484015250505050565b6000601f19601f8301169050919050565b600061149282611430565b61149c818561143b565b93506114ac81856020860161144c565b6114b581611476565b840191505092915050565b600060208201905081810360008301526114da8184611487565b905092915050565b6000604051905090565b600080fd5b600080fd5b600073ffffffffffffffffffffffffffffffffffffffff82169050919050565b6000611521826114f6565b9050919050565b61153181611516565b811461153c57600080fd5b50565b60008135905061154e81611528565b92915050565b6000819050919050565b61156781611554565b811461157257600080fd5b50565b6000813590506115848161155e565b92915050565b600080604083850312156115a1576115a06114ec565b5b60006115af8582860161153f565b92505060206115c085828601611575565b9150509250929050565b60008115159050919050565b6115df816115ca565b82525050565b60006020820190506115fa60008301846115d6565b92915050565b61160981611554565b82525050565b60006020820190506116246000830184611600565b92915050565b600080600060608486031215611643576116426114ec565b5b60006116518682870161153f565b93505060206116628682870161153f565b925050604061167386828701611575565b9150509250925092565b600060ff82169050919050565b6116938161167d565b82525050565b60006020820190506116ae600083018461168a565b92915050565b6000602082840312156116ca576116c96114ec565b5b60006116d88482850161153f565b91505092915050565b60006116ec826114f6565b9050919050565b6116fc816116e1565b82525050565b600060208201905061171760008301846116f3565b92915050565b600080fd5b600080fd5b7f4e487b7100000000000000000000000000000000000000000000000000000000600052604160045260246000fd5b61175f82611476565b810181811067ffffffffffffffff8211171561177e5761177d611727565b5b80604052505050565b60006117916114e2565b905061179d8282611756565b919050565b600067ffffffffffffffff8211156117bd576117bc611727565b5b6117c682611476565b9050602081019050919050565b82818337600083830152505050565b60006117f56117f0846117a2565b611787565b90508281526020810184848401111561181157611810611722565b5b61181c8482856117d3565b509392505050565b600082601f8301126118395761183861171d565b5b81356118498482602086016117e2565b91505092915050565b600060208284031215611868576118676114ec565b5b600082013567ffffffffffffffff811115611886576118856114f1565b5b61189284828501611824565b91505092915050565b600080604083850312156118b2576118b16114ec565b5b60006118c08582860161153f565b92505060206118d18582860161153f565b9150509250929050565b7f4e487b7100000000000000000000000000000000000000000000000000000000600052602260045260246000fd5b6000600282049050600182168061192257607f821691505b602082108103611935576119346118db565b5b50919050565b7f4e487b7100000000000000000000000000000000000000000000000000000000600052601160045260246000fd5b600061197582611554565b915061198083611554565b92508282019050808211156119985761199761193b565b5b92915050565b7f4f6e6c79206f776e65722063616e2063616c6c20746869732066756e6374696f60008201527f6e00000000000000000000000000000000000000000000000000000000000000602082015250565b60006119fa60218361143b565b9150611a058261199e565b604082019050919050565b60006020820190508181036000830152611a29816119ed565b9050919050565b7f45524332303a2064656372656173656420616c6c6f77616e63652062656c6f7760008201527f207a65726f000000000000000000000000000000000000000000000000000000602082015250565b6000611a8c60258361143b565b9150611a9782611a30565b604082019050919050565b60006020820190508181036000830152611abb81611a7f565b9050919050565b7f417274697374206e6f7420766572696669656420796574000000000000000000600082015250565b6000611af860178361143b565b9150611b0382611ac2565b602082019050919050565b60006020820190508181036000830152611b2781611aeb565b9050919050565b7f4f6e6c79207665726966696564206172697473742063616e2063616c6c20746860008201527f69732066756e6374696f6e000000000000000000000000000000000000000000602082015250565b6000611b8a602b8361143b565b9150611b9582611b2e565b604082019050919050565b60006020820190508181036000830152611bb981611b7d565b9050919050565b60008190508160005260206000209050919050565b60006020601f8301049050919050565b600082821b905092915050565b600060088302611c227fffffffffffffffffffffffffffffffffffffffffffffffffffffffffffffffff82611be5565b611c2c8683611be5565b95508019841693508086168417925050509392505050565b6000819050919050565b6000611c69611c64611c5f84611554565b611c44565b611554565b9050919050565b6000819050919050565b611c8383611c4e565b611c97611c8f82611c70565b848454611bf2565b825550505050565b600090565b611cac611c9f565b611cb7818484611c7a565b505050565b5b81811015611cdb57611cd0600082611ca4565b600181019050611cbd565b5050565b601f821115611d2057611cf181611bc0565b611cfa84611bd5565b81016020851015611d09578190505b611d1d611d1585611bd5565b830182611cbc565b50505b505050565b600082821c905092915050565b6000611d4360001984600802611d25565b1980831691505092915050565b6000611d5c8383611d32565b9150826002028217905092915050565b611d7582611430565b67ffffffffffffffff811115611d8e57611d8d611727565b5b611d98825461190a565b611da3828285611cdf565b600060209050601f831160018114611dd65760008415611dc4578287015190505b611dce8582611d50565b865550611e36565b601f198416611de486611bc0565b60005b82811015611e0c57848901518255600182019150602085019450602081019050611de7565b86831015611e295784890151611e25601f891682611d32565b8355505b6001600288020188555050505b505050505050565b7f45524332304361707065643a2063617020657863656564656400000000000000600082015250565b6000611e7460198361143b565b9150611e7f82611e3e565b602082019050919050565b60006020820190508181036000830152611ea381611e67565b9050919050565b7f45524332303a206d696e7420746f20746865207a65726f206164647265737300600082015250565b6000611ee0601f8361143b565b9150611eeb82611eaa565b602082019050919050565b60006020820190508181036000830152611f0f81611ed3565b9050919050565b7f45524332303a20617070726f76652066726f6d20746865207a65726f2061646460008201527f7265737300000000000000000000000000000000000000000000000000000000602082015250565b6000611f7260248361143b565b9150611f7d82611f16565b604082019050919050565b60006020820190508181036000830152611fa181611f65565b9050919050565b7f45524332303a20617070726f766520746f20746865207a65726f20616464726560008201527f7373000000000000000000000000000000000000000000000000000000000000602082015250565b600061200460228361143b565b915061200f82611fa8565b604082019050919050565b6000602082019050818103600083015261203381611ff7565b9050919050565b7f45524332303a20696e73756666696369656e7420616c6c6f77616e6365000000600082015250565b6000612070601d8361143b565b915061207b8261203a565b602082019050919050565b6000602082019050818103600083015261209f81612063565b9050919050565b7f45524332303a207472616e736665722066726f6d20746865207a65726f20616460008201527f6472657373000000000000000000000000000000000000000000000000000000602082015250565b600061210260258361143b565b915061210d826120a6565b604082019050919050565b60006020820190508181036000830152612131816120f5565b9050919050565b7f45524332303a207472616e7366657220746f20746865207a65726f206164647260008201527f6573730000000000000000000000000000000000000000000000000000000000602082015250565b600061219460238361143b565b915061219f82612138565b604082019050919050565b600060208201905081810360008301526121c381612187565b9050919050565b7f45524332303a207472616e7366657220616d6f756e742065786365656473206260008201527f616c616e63650000000000000000000000000000000000000000000000000000602082015250565b600061222660268361143b565b9150612231826121ca565b604082019050919050565b6000602082019050818103600083015261225581612219565b905091905056fea26469706673582212208f0935463135de052dc9dd04f9af3e03621cf4da7a84be83397a949254ddc30b64736f6c63430008110033",
  "linkReferences": {},
  "deployedLinkReferences": {}
}